:020000040000FA
:040000000AEF00F013
:1000080003829EB63BEC00F00392110050EF00F023
:10001800000E0F013E6F82988B983A9994889486C7
:10002800000EC76EF00EC86EFE0ECA6E2E0EC66E9D
:10003800000EC56E000ECB6E9E969D8648EC00F0B5
:1000480055EC00F01200000E806E000E0F01386FA4
:10005800000E926E0CEC00F0000E896E060E026E19
:10006800300EE82EFED7022EFCD700D0F7D757EC7B
:1000780000F08968340E016EF20EE82EFED7012ECC
:10008800FCD7000E896E1200D08EC00EF2129D862B
:100098009F86600ECB12120003900392000127EF97
:0A00A80000F09E9612009E961200D2
:020000040020DA
:08000000FFFFFFFFFFFFFFFF00
:020000040030CA
:0E000000FF291F3CFFBF85FF0FC00FE00F4020
:00000001FF
