:020000040000FA
:060000001EEF01F01200EA
:020006000000F8
:08000800060EF66E000EF76E05
:10001000000EF86E00010900F550656F0900F550FB
:10002000666F03E1656701D03DD00900F550606F50
:100030000900F550616F0900F550626F0900090071
:10004000F550E96E0900F550EA6E09000900090053
:10005000F550636F0900F550646F09000900F6CF91
:1000600067F0F7CF68F0F8CF69F060C0F6FF61C0C5
:10007000F7FF62C0F8FF0001635302E1645307E039
:100080000900F550EE6E6307F8E26407F9D767C020
:10009000F6FF68C0F7FF69C0F8FF00016507000EB2
:0600A000665BBFD71200F1
:0A00A600D9CFE6FFE1CFD9FF020E2B
:1000B000E126780EDF6E010EDB6A800EE66E080E1A
:1000C000E66EDEEC00F0E552E552C750040B01E0AD
:1000D000010E046E1F0EC5140410F7E1C580C5B0F3
:1000E000FED7C750040B01E0010E046E1F0EC514AD
:1000F0000410F7E1010EDB6ADB50896EFA0EE66E42
:10010000F7EC00F0E552FE0EDF14E66E9EEC00F018
:10011000E552E76E010EE7CFDBFFDB508912FA0EE6
:10012000E66EF7EC00F0E552C750040B01E0010E5B
:0C013000046E1F0EC5140410DDE0F6D7AD
:04013C00D9CFE6FF32
:10014000DACFE6FFE1CFD9FFE2CFDAFFFD0EDB50D9
:10015000C96EC6AE02D0FF0E2BD00F0EC614080813
:100160000FE00F0EC6140B080BE0C6889EA6FED744
:10017000C750040B03E1C750010B17E0000E18D065
:100180000F0EC614080804E00F0EC6140B0810E189
:10019000C7B0FED7C750040B01E0010E046E1F0E5E
:1001A000C5140410F7E1C5AC02D0FE0E01D0000E5C
:0C01B000E552E5CFDAFFE7CFD9FF1200DF
:0401BC00D9CFE6FFB2
:1001C000DACFE6FFE1CFD9FFE2CFDAFF3F0EC71665
:1001D000C66AC56AFD0EDB50C612FC0EDB50C712A4
:0E01E000C68AE552E5CFDAFFE7CFD9FF12005D
:0201EE00FF0E02
:1001F000E350036EEF0E01D0F30EE76EE72EFEEF35
:1002000000F00C0E026EE76AE72E04EF01F0022EFA
:0C02100003EF01F0032EFCEF00F01200E1
:04021C00000EF36E6F
:1002200000EE00F0060E01D81200EA6002D0EE6A7D
:0C023000FCD7F350E9601200EE6AFCD726
:04023C0015EE00F0CB
:1002400025EE00F0F86A019C04EC00F02CEC01F0C3
:0802500053EC00F0FBD7120093
:02025800120092
:020000040030CA
:0100010029D5
:010003003CC0
:00000001FF
