:020000040000FA
:0400000045EF3FF099
:107E7A005600FF92016EACA2FED701C0ADFF120000
:107E8A007A0EF66E7E0EF76E000EF86E00EE1AF09F
:107E9A0010EE04F00900F5CFEEFFE550E150FAE1EB
:107EAA001F6A1E6A000172EF3FF03F0E82163F0EF4
:107EBA000F013A17C00E94123F0E8B16949C948EA3
:107ECA00AC98AC9CAC8AAB9CAB88B896AC94AB8EA5
:107EDA00600ED3120C0EAF6E1200800E0E6E1A0ECA
:107EEA000F6E060E106E000E116E8AEC3FF05AEC01
:107EFA003FF01AC016F01BC017F01CC018F01DC0C6
:107F0A0019F016503FEC3FF0FCD70F013E9DE70EEB
:107F1A008216E70E8B16E70E3A17180E9412280EE1
:107F2A00C66E000EC56EFC0ECB16000E016E240E38
:107F3A00026EF40E036E000E046E0EC012F00FC035
:107F4A0013F010C014F011C015F0020ED8901236BA
:107F5A00133614361536E82EF9D712C005F013C0B9
:107F6A0006F014C007F015C008F0BFEC3FF001049A
:107F7A00C86E1200000E096E000E0A6E000E0B6E1D
:107F8A00000E0C6E0550061007100810D8B42AD03F
:107F9A00010E0D6E06D0D89005360636073608361D
:107FAA000D2A08AEF8D7D89009360A360B360C36A1
:107FBA000550015C065002580750035808500458EF
:107FCA00D8A009D00550015E0650025A0750035A3C
:107FDA000850045A0980D89008320732063205320E
:107FEA000D2EE1D709C001F00AC002F00BC003F060
:067FFA000CC004F01200AF
:020000040020DA
:08000000FFFFFFFFFFFFFFFF00
:020000040030CA
:0E000000FF291F3CFFBF85FF0FC00FE00F4020
:00000001FF
