:020000040000FA
:04000000B9EF3EF026
:107CBE00C5861200C58212005600FF9295EC3EF06A
:107CCE00C58095EC3EF0120095EC3EF0C58495EC27
:107CDE003EF01200036E65EC3EF003C0C9FF6BEC84
:107CEE003EF012003F0E82163F0E0F013A17C00EE5
:107CFE0094123F0E8B161200036E0350D8A403D0BD
:107D0E00016A012A01D0016A050E026ED890013671
:107D1E00022EFCD70150C512C5881200C7A402D08E
:107D2E00010E01D0000E016EC5CF02F01F0E02161D
:107D3E00D8B402D0010E01D0000E0110EFE11200F6
:107D4E000E6E0E500E24FE0B0F6E0CC010F00DC0FA
:107D5E0011F00F0E046E000E056E030E066EF3ECA0
:107D6E003EF01200C60EF66E7C0EF76E000EF86E2A
:107D7E0000EE1CF010EE04F00900F5CFEEFFE5501A
:107D8E00E150FAE1216A206A00019AEF3FF0066E97
:107D9E0065EC3EF006500624FE0BC96E95EC3EF0E7
:107DAE0004C0C9FF6BEC3EF061EC3EF095EC3EF08A
:107DBE00D8800634C96E95EC3EF05FEC3EF095EC43
:107DCE003EF0C9CF05F095EC3EF0000E83EC3EF090
:107DDE006BEC3EF0055012000604D8A407D004C088
:107DEE00D9FF05C0DAFFDF5071EC3EF0020E0660DF
:107DFE0001D0120065EC3EF0000E0B6E000E0A6E06
:107E0E000CD00A500424D96E0B500520DA6EDF50C8
:107E1E00C96E95EC3EF00A4A0B2A0650076E086AA8
:107E2E0007500A5C0B50800A096E0850800A0958E8
:107E3E00D8A0E7D76BEC3EF012000F013E9DE70E87
:107E4E008216E70E8B16E70E3A17180E9412280EAE
:107E5E00C66E000EC56EFC0ECB16000E016E240E05
:107E6E00026EF40E036E000E046E0EC012F00FC002
:107E7E0013F010C014F011C015F0020ED890123687
:107E8E00133614361536E82EF9D712C005F013C086
:107E9E0006F014C007F015C008F059EC3FF00104CD
:107EAE00C86E1200000E096E000E0A6E000E0B6EEA
:107EBE00000E0C6E0550061007100810D8B42AD00C
:107ECE00010E0D6E06D0D8900536063607360836EA
:107EDE000D2A08AEF8D7D89009360A360B360C366E
:107EEE000550015C065002580750035808500458BC
:107EFE00D8A009D00550015E0650025A0750035A09
:107F0E000850045A0980D8900832073206320532DA
:107F1E000D2EE1D709C001F00AC002F00BC003F02C
:107F2E000CC004F01200800E0E6E1A0E0F6E060EAE
:107F3E00106E000E116E24EC3FF079EC3EF01CC07A
:107F4E0018F01DC019F01EC01AF01FC01BF0010E54
:107F5E000C6E010E0D6E780EA7EC3EF0030E176E32
:107F6E00080E166E770EE82EFED7162EFCD7172E9D
:107F7E00FAD700F0000E0C6E200E0D6E780EA7ECE8
:107F8E003EF0030E176E080E166E770EE82EFED715
:107F9E00162EFCD7172EFAD700F0020E0C6E7F0E9F
:107FAE000D6E780EA7EC3EF0030E176E080E166ED1
:107FBE00770EE82EFED7162EFCD7172EFAD700F026
:107FCE00030E046E780ECEEC3EF0216E030E176E8D
:107FDE00080E166E770EE82EFED7162EFCD7172E2D
:107FEE00FAD700F0040E046E780ECEEC3EF0206E42
:027FFE00AED7FC
:020000040020DA
:08000000FFFFFFFFFFFFFFFF00
:020000040030CA
:0E000000FF291F3CFFBF85FF0FC00FE00F4020
:00000001FF
